:020000040800F2
:10000000D0040020D5000008350D0008870C00083A
:1000100000000000000000000000000000000000E0
:10002000000000000000000000000000390D000882
:100030000000000000000000370D00083B0D000824
:10004000E7000008E7000008E7000008E7000008F4
:10005000E7000008E7000008E7000008E7000008E4
:10006000E7000008E7000008E7000008E7000008D4
:10007000E7000008E7000008E7000008E7000008C4
:10008000E7000008E7000008E7000008E7000008B4
:10009000E7000008E7000008E7000008E7000008A4
:1000A000E7000008E7000008E7000008E700000894
:1000B000E7000008E7000008E7000008E700000884
:1000C0000348854600F08EF8004800477515000883
:1000D000D00400200448804704480047FEE7FEE7BC
:1000E000FEE7FEE7FEE7FEE7810D0008C10000081D
:1000F00030B50B46014600202022012409E00D46C0
:10010000D5409D4205D31D469540491B2546954047
:1001100040191546521E002DF1DC30BDF0B51FB45C
:100120000646002082B005464024019100901BE065
:10013000019922460F46304600F020F8049A059BAC
:10014000801A994110D310461946224600F039F81A
:10015000361A8F410197224601200021009F00F0AE
:1001600030F838184D4100902046641E0028DFDC2E
:10017000019B00982946324607B0F0BD10B5202AF1
:1001800004DB0846203AD040002110BD0B46D34086
:10019000D0402024A21A91400843194610BDD2B283
:1001A00001E00270401C491EFBD270470022F6E7B6
:1001B00010B513460A4604461946FFF7F0FF2046DD
:1001C00010BD10B5202A04DB0146203A91400020E2
:1001D00010BD914020239C1A0346E34019439040F0
:1001E00010BD0000064C0125064E05E0E36807CC73
:1001F0002B430C3C98471034B442F7D3FFF764FF0D
:100200006C1600088C16000870B5044600F0DAF889
:100210000546601C02D004480078241800F0D2F88B
:10022000401BA042FAD370BD00000020FCB50023A3
:100230000124A6E027462A469F403A4073D04D68E5
:10024000012D05D0022D03D0112D01D0122D16D174
:1002500085680326AC465D00AE46AE406546B543B4
:10026000AC46CE687546AE4065462E43866046680D
:100270000D79BE43ED06ED0F9D4035434560C668E0
:100280005F000325BD40AE46AE4335468E68BE4096
:100290002E43C6604E68022E01D0122E14D1DE0805
:1002A000B60036180196366A5D07B446EE0E0F2585
:1002B000B54000966646AE43B4460D69009EB54013
:1002C00066462E43019D2E6206687546AE430D7943
:1002D000AD07AD0FBD40354305604D68ED004FD50E
:1002E0002B4DAE692643AE61AD699E08ED07ED0F5B
:1002F0000095284DB6007519AC46AD689E07360FBF
:100300000F27B740BD430927FF06B84201D1002798
:1003100015E0214FB84201D1012710E01F4FB8422C
:1003200002D102270BE02BE01D4FB84201D1032779
:1003300005E01C4FB84201D1042700E00527B74073
:100340002F436546AF60184E35684F689543FF03ED
:1003500000D51543356075684F689543BF0300D5D8
:1003600015437560B5684F689543FF0200D5154386
:10037000B560F5684F689543BF0200D51543F56039
:100380005B1C0A681546DA4000D053E7FCBD00004C
:10039000001002400000014000040048000800482E
:1003A000000C0048001000480004014000690840AB
:1003B00000D001207047002A01D08161704781621E
:1003C000704700000148806870470000000000206E
:1003D0000248816802788918816070470000002017
:1003E00010B506480168102211430160002000F09A
:1003F00007F800F027F8002010BD000000200240A0
:1004000070B504460D4D7D202978C000FFF770FEC1
:1004100001460B480068FFF76BFE00F011FB002857
:1004200009D1042C07D200222146401E00F01EF8FC
:1004300000206C6070BD012070BD00000000002035
:100440000C00002008B50848816901221143816130
:10045000816911400091C26901040A43C261C06907
:100460000840009008BD00000010024010B500F0E8
:10047000A1FE10BDF8B50F4606005FD03D4D2868BF
:10048000C007C00FB84209D228684008400038436E
:1004900028602868C007C00FB8424FD13068364C7A
:1004A00081070CD5400704D560680721090208437D
:1004B00060606068F0218843B1680843606030780C
:1004C000C0072CD07068012810D0022811D0032852
:1004D00012D021688907002930DA6168890889000B
:1004E00001436160FFF76EFF009011E0216889030E
:1004F000F1E721688901EEE7616BC903EBE7FFF7DC
:1005000061FF0099411A1D48814201D90320F8BDBD
:1005100060680C210840716889008842EFD1286822
:10052000C007C00FB8420BD92868400840003843C4
:1005300028602868C007C00FB84201D00120F8BD6C
:100540003078400706D56068072109028843F168C2
:100550000843606000F028F86168094A0906090F3D
:10056000515CC840074908600020FFF749FF0020A0
:10057000F8BD000000200240001002408813000077
:10058000541600080C00002004480549006849681A
:10059000044A4905490F515CC84070470C000020CF
:1005A000001002406416000830B519A30FCB89B0C3
:1005B0006C460FC41AA30FCB0FC41D4A51680C2000
:1005C0000B4603401B48042B05D01B4D082B04D0C1
:1005D0000C2B00D1284609B030BD8B021B0F6C4696
:1005E000E45CD26A04AB1207120FC9039A5C890F4C
:1005F000022901D0032901D0002301E0002328466D
:100600000021FFF78BFD214600F0BCFDE3E7000071
:1006100002030405060708090A0B0C0D0E0F101043
:100620000102030405060708090A0B0C0D0E0F1042
:100630000010024000127A00006CDC02FEB50400DB
:1006400070D02078F94EFA4DC00748D0686800078E
:10065000800F01281FD068680007800F022804D18E
:100660006868C003800F022815D06168012919D07D
:1006700001208004002901D0052917D02968B14341
:100680002960296881432960606800281BD0FFF732
:1006900099FE074613E02868800320D5606800288B
:1006A000CED01CE0286830432860EDE7296801437C
:1006B0002960F7E7FFF786FEC01B642870D828681A
:1006C0008003F7D50BE0FFF77DFE074604E0FFF758
:1006D00079FEC01B6428F1D828688003F7D42078FD
:1006E00080073FD568680007800F14D0686800074E
:1006F000800F022804D16868C003800F01280AD047
:10070000E068002828681ED0012108432860FFF710
:1007100059FE07460CE0286880070CD5E0680128E0
:1007200000D108E080E1FFF74DFEC01B0228C5D8CC
:1007300028688007F7D52868F82188432169C9000F
:10074000084328600EE0400840002860FFF73AFEAA
:10075000074604E0FFF736FEC01B0228AED8286823
:100760008007F7D42078000723D5E0690028686A5D
:100770000FD0012108436862FFF724FE074604E01A
:10078000FFF720FEC01B022898D8686A8007F7D5BB
:100790000FE0400840006862FFF714FE074605E0DE
:1007A000C3E0FFF70FFEC01B022887D8686A8007E6
:1007B000F7D4207804274007002861DA0020019050
:1007C000E869C00008D4E969B8060143E961E9694C
:1007D000014001200091019096480168C90511D49B
:1007E0000168821511430160FFF7ECFD009005E000
:1007F000FFF7E8FD0099401A642898D88D480068F2
:10080000C005F5D5A06801280AD0002801D0052828
:1008100011D0286A400840002862286AB84302E0E4
:10082000286A012108432862A068002812D0FFF737
:10083000C9FD00900AE0286A38432862F0E7FFF714
:10084000C1FD0099411A7C4881426ED8286A800710
:10085000F5D50DE0FFF7B6FD009006E0FFF7B2FD1D
:100860000099411A744881425FD8286A8007F5D4FC
:100870000198002804D0E969012000078143E9615B
:100880002078C00635D5606901280CD0401D686B02
:1008900024D038436863686B400840006863FFF702
:1008A00091FD074622E0686B38436863686B01215D
:1008B00008436863FFF786FD074604E0FFF782FD03
:1008C000C01B022831D8686B8007F7D5686BF82108
:1008D0008843A169C900084368630AE0B8436863B4
:1008E000F4E7FFF76FFDC01B02281ED8686B800776
:1008F000F7D42078800637D568680007800F032872
:1009000014D068680007800F022804D16868C0030B
:10091000800F03280AD0206A0028686B16D0304365
:100920006863FFF74FFD06460CE062E0686BC003AA
:100930001AD5206A012877D116E0FFF743FD801B06
:10094000022856D8686BC003F7D50DE0B043686342
:10095000FFF738FD064604E0FFF734FD801B022850
:1009600047D8686BC003F7D4606A002866D069680E
:100970000907890F022942D0012636060228286875
:1009800005D0B0432860FFF71DFD044633E0B043B7
:100990002860FFF717FD074604E0FFF713FDC01BB3
:1009A000022826D828688001F7D4E86A216B00095C
:1009B00000010843E862A16AE06A084369687B2293
:1009C000D203914308436860286830432860FFF7EA
:1009D000F9FC044604E0FFF7F5FC001B022808D8E8
:1009E00028688001F7D529E0FFF7ECFC001B0228FE
:1009F00001D90320FEBD28688001F5D41EE001283E
:100A0000F8D06868E96A0322D203A36A02409A42D6
:100A10000AD10907226B090F914205D10F218904E0
:100A20000840E16A884209D00120FEBD00000100B3
:100A30000010024000700040881300000020F4E71E
:100A4000094910B5401E884201D9012010BD074C4C
:100A500060610321081F00F0ADFB0020A0610720AA
:100A60002061002010BD0000FFFFFF0000E000E05B
:100A700070B5040005D025462035687F002802D0D7
:100A800006E0012070BD00202877204600F00AF81B
:100A900002206877211D206800F074F90120687732
:100AA000002070BD08B500680649884208D1064894
:100AB0008269012149040A438261806908400090EB
:100AC00008BD00000044014000100240022201461F
:100AD00020314A770068826801235207520F062AA4
:100AE00002D002681A4302604B770020704710B5AD
:100AF000040003D0606F002802D007E0012010BD81
:100B0000002170200155204600F026F8242060675F
:100B100020680168490849000160204600F012FA87
:100B20000128ECD0606A002802D0204600F074F959
:100B3000206841680922D20291434160206881689F
:100B40002A229143816020680168012211430160DB
:100B5000204600F0C7F910BD10B586B00446142138
:100B60006846FFF723FB1249206888421DD11148CF
:100B7000C2690121C9040A43C261C2690A400592DF
:100B8000426989100A434261406908400590032088
:100B90000221009003900191042000210490029111
:100BA00009206946C006FFF741FB06B010BD0000F2
:100BB000004C004000100240FFB50446406F83B077
:100BC00017460D4620285CD1002D0AD0002F08D0F2
:100BD000A168C001814207D12069002804D1E8073B
:100BE00002D0012007B0F0BD204660300290007CAA
:100BF000012846D00298012101740020E0672120DD
:100C00006067FFF7DFFB2646403601903782778228
:100C10000120A1680003814202D12069002802D08E
:100C20002F46002511E000270FE0002280212046FA
:100C300000F046FA002815D1002F15D02168387829
:100C400008857F1C708A401E7082708A019B002874
:100C500006980090E9D100224021204600F030FAA9
:100C6000002808D00320BDE728882168C005C00DF2
:100C70000885AD1CE6E72020606702990020087413
:100C8000B0E70220AEE7FEE730B587B01421684632
:100C9000FFF78CFA194842690121C9040A434261ED
:100CA00042690A4005924269C9000A4342614269A9
:100CB0000A400592426949110A4342614069092587
:100CC0000840ED060590002220212846FFF773FB1F
:100CD00001204003002400900194694602940848D2
:100CE000FFF7A4FA202000900120019002946946A9
:100CF00003942846FFF79AFA07B030BD001002406F
:100D00000008004810B50A4808490160E12149027D
:100D1000416000218160C16001618161C1610C227B
:100D2000016242614162FFF7E2FE10BD004C0040EB
:100D30005000002070477047704710B5FFF748FB20
:100D400010BD10B592B034216846FFF72FFA002489
:100D50000F94202000900D9401200E940890109480
:100D600009946846FFF76AFC07200D9003200E9057
:100D70000F94012110940DA8FFF77CFB12B010BD59
:100D800070470000F0B502681D4B0124A4071D4DFB
:100D9000984203D0A04201D0A84203D17026B243AA
:100DA0004E683243184E194F98420DD0A0420BD0D6
:100DB000A84209D0164CA04206D0B04204D0B84296
:100DC00002D0144CA04204D103242402A243CC68D4
:100DD00022438024A2434C69224302608A68C26293
:100DE0000A688262984206D0B04204D0B84202D06B
:100DF000084A904201D10969016301214161F0BDB6
:100E0000002C01400004004000400140004401402B
:100E1000002000400048014010B5818CC90707D070
:100E200001684A6801235B049A43836A1A434A6053
:100E3000818C890707D501684A6801231B049A43FE
:100E4000C36A1A434A60818C490707D501684A681A
:100E500001239B049A43036B1A434A60818C090760
:100E600007D501684A680123DB039A43436B1A43A1
:100E70004A60818CC90607D50268916801231B036B
:100E80009943836B19439160818C890607D501686A
:100E90008A6801235B039A43C36B1A438A60818C7F
:100EA000490612D503685A6801210905046C8A4372
:100EB00022435A60026C8A4207D1026851680323B8
:100EC0005B059943436C19435160818C090607D532
:100ED00001684A680123DB04806C9A4302434A603C
:100EE00010BD0000F8B500260446C667FFF76AFA91
:100EF000054620680068124F000709D501212B46DE
:100F0000002249052046009700F0DAF800280DD1AC
:100F10002068006840070BD501212B460022890577
:100F20002046009700F0CCF8002801D00320F8BD3F
:100F300020206067A067603426740020F8BD0000A0
:100F4000FFFFFF0170B5044680682169E26908432C
:100F50006169002511432268084311684F4B19400D
:100F60000143116021684868032212039043E2683C
:100F700010434860A169206A2268084391680B23E6
:100F80001B02994301439160454B0122206845496A
:100F9000120498420AD1086B8007800F23D00128E1
:100FA00014D0022814D003281CD10DE03E4B9842E7
:100FB00010D1086B03210904084014D0801A05D011
:100FC000801A05D090420DD102200CE004200AE0E6
:100FD000082008E03549884202D03549884201D1CD
:100FE000002000E010200123E169DB03314E99422B
:100FF00029D1002806D0022807D004281AD00828B2
:1010000045D11DE0FFF7C0FA16E061682A4A48089A
:101010008018FFF76DF880B201461039B14236D81A
:1010200024490246491C0A400007410F2068114329
:10103000C1602DE0FFF7B8FA616840004A08E7E7B1
:1010400061684808E4E7002806D0022807D0042891
:1010500013D008281BD116E0FFF796FA0FE061685D
:10106000164A48088018FFF743F880B20146103945
:10107000B1420CD82168C8600AE0FFF795FA6168B0
:101080004A081018EFE761684808C018EBE7012527
:10109000002020666066284670BD0000F369FFEFFF
:1010A0000038014000100240004400400048004069
:1010B000004C0040EFFF00000024F40000127A0012
:1010C000FFB581B005460F46044660350A9E38E0FC
:1010D000701C36D0FFF776F90499401AB04221D837
:1010E000002E1FD02068016849072AD5C069C04377
:1010F000000526D401202168C0020862206801682A
:10110000FF22A132914301602068816849084900AB
:10111000816020206067A067E067002028740320BA
:1011200005B0F0BD20680168FF22A1329143016043
:101130002068816849084900816020206067A067B5
:10114000EBE72068C1693846884305D00021039841
:101150008142BDD00020E3E70121F8E70FB410B5CC
:1011600004A9074B02AA039800F056F8044602A906
:10117000002000F0F9F9204610BC08BC04B0184764
:1011800069150008F8B5040C8BB2264682B25E439E
:101190000D0C1046370C5843360480190021794154
:1011A00016466E43370C36048019794126466E4345
:1011B0008919F8BD8307FF22DB0E9A408907090EC3
:1011C0009940002808DB830809489B001B18186811
:1011D00090430843186070470007000F08388308E1
:1011E00004489B001B18D86990430843D861704796
:1011F00000E400E000ED00E002E008C8121F08C1B2
:10120000002AFAD170477047002001E001C1121F87
:10121000002AFBD170470000FFB58FB005460026BD
:1012200006E025280AD0129A119990476D1C761C69
:1012300028780028F5D1304613B0F0BD0024029480
:101240000121B54A009400E004436D1C2B78084648
:10125000203B98401042F7D128782A280ED002224D
:10126000287801463039092916D802990A235943AA
:101270003039401814436D1C0290F1E7109802C8F1
:1012800002911090002904DA0120400304434842EF
:101290000290022004436D1C28782E2817D10420C8
:1012A000044368786D1C2A280CD110986D1C02C864
:1012B000009110900BE000990A22514330394018F8
:1012C0006D1C00902878014630390929F3D9287817
:1012D0006C2810D006DC4C281AD068280ED06A285A
:1012E00017D104E0742813D07A2812D110E001201D
:1012F000400504430CE00121090501E00321090533
:101300000C436978814203D10120000524186D1C2B
:101310006D1C2878692874D006DC00288BD06328DF
:1013200027D0642806D16CE06E2808D073282CD012
:10133000752878D0129A11999047761C5FE0600268
:10134000400F022809D003280DD004281098016806
:101350000DD00E60001D109051E01098F21701683A
:101360000E604A60F6E7109801680E80F2E70E7092
:10137000F0E710986A4601781173001D1090002064
:10138000507303A80190012005E0109802C8019154
:1013900010900020C04361070CD5002700E07F1C9F
:1013A00000998F420FDA8742F9DB0199C95D002964
:1013B000F5D108E0002700E07F1C8742FCDB0199A3
:1013C000C95D0029F8D102982146C01B0290129BEA
:1013D000119A00F0B3F88019C61907E00198019935
:1013E0000078491C0191129A119990477F1EF5D2FD
:1013F0002146129B119A029800F090F886196D1CF4
:1014000016E70A200190109901C910916102490F55
:10141000032900D100B2042900D140B2002803DA28
:1014200040422D2103E00DE0210504D52B216A4621
:101430001173012103E0E10711D02021F7E70CAF80
:101440000C9114E00A200190109901C910916102D9
:10145000490F032900D180B2042900D1C0B2002174
:10146000EDE70199FEF744FE30317F1E3970002808
:10147000F7D104A8C01B20300190600704D50120DB
:1014800000048443009801E0012000900199884203
:1014900001DD401A00E00020411800900C98091866
:1014A0000298401A0290E00306D42146129B119A3A
:1014B000029800F043F8861900200D9008E003A977
:1014C000085C129A119990470D98401C761C0D905B
:1014D0000C998842F3DBE0030CD52146129B119A4C
:1014E000029800F02BF8861904E0129A3020119926
:1014F0009047761C0099481E00900029F5DC05E015
:101500003878129A7F1C11999047761C0199481ED1
:1015100001900029F4DC6BE709280100F8B50446C6
:1015200000251E461746880404D405E039462020CD
:10153000B0476D1C641EF9D52846F8BDFFB50446BA
:10154000002581B01E46C80301D5302700E02027C2
:10155000880404D505E038460399B0476D1C641E25
:10156000F9D5284605B0F0BD0A68531C0B60107011
:10157000704700000EB50025FEF732FFFFF7E1FBD4
:10158000FFF782FB2D4C2C4820602D486060002026
:10159000A06020612B496061E160A0612046FFF7F7
:1015A00067FAFFF7AFFB2046FFF790FA0126264FB8
:1015B000760331463846FEF7F9FE012824D1002D86
:1015C00022D03220FEF720FE31463846FEF7EEFEEE
:1015D0000028EED02068416A0298081A64307D2104
:1015E00080B2C90088420DD3FEF782FD024617A1E2
:1015F0006846FFF7B3FD82B21048C8236946403001
:10160000FFF7DAFA0025D4E731463846FEF7CEFE7A
:101610000028CED1002DCCD13220FEF7F5FD314689
:101620003846FEF7C3FE0028C3D12068406A012572
:1016300080B20290BDE7000000440140100000208D
:101640007FBB0000FFFF00000008004825757365A0
:10165000630D0A0000000000000000000102030406
:101660000607080900000000010203048C160008A8
:101670000000002010000000F81100089C1600086F
:1016800010000020C0040000081200080100000043
:0C169000040000000000000000127A00BE
:04000005080000C12E
:00000001FF
